:020000020000FC
:020000000DC130
:1002000041634732644D525A786D62354875370004
:100210005261697A616F20343332310001E20EBFDE
:100220000FEF0DBFE0E0F2E0A0E0B2E08FE0803041
:1002300021F075917D938A95FACFE0E1F2E0A0E09C
:10024000B3E08CE0803021F075917D938A95FACFF0
:10025000662701D0FFCFE0E0F3E01191103021F0EC
:1002600004D01BD029D0F9CF08950F934F937F93DB
:10027000CF93DF93332700E0C02F02E0D02F7FE041
:100280004991141711F431E002C07A95C9F7DF9152
:10029000CF917F914F910F910895FF93EF93222774
:1002A000E0E0F3E05191503021F05117D9F7239558
:1002B000F9CFEF91FF9108950F937F939F930F9242
:1002C0005F93AF93BF93A0E0B4E0762F772359F00C
:1002D0005C91151729F411960C9003940C9214C09C
:1002E00013967A95A9F7062F7727003021F0002E74
:1002F000000C000E01C00024A0E0B4E0A00DB71F68
:100300001D932D933C936395BF91AF915F910F9097
:080310009F917F910F91089568
:00000001FF
